:020000040800F2
:100000008006002089010008F90A0008D9050008C7
:10001000FD090008A7020008610D000800000000AB
:10002000000000000000000000000000590B000864
:10003000AB02000800000000FB0A0008450C0008A5
:10004000A3010008A3010008A3010008A301000800
:10005000A3010008A3010008A3010008A3010008F0
:10006000A3010008A3010008A3010008A3010008E0
:10007000A3010008A3010008A3010008A3010008D0
:10008000A3010008A3010008A3010008A3010008C0
:10009000A3010008A3010008A3010008A3010008B0
:1000A000A3010008A3010008A3010008A3010008A0
:1000B000A3010008A3010008A3010008A301000890
:1000C000A3010008A3010008A3010008A301000880
:1000D000A3010008A3010008A90C0008A30100085F
:1000E000A3010008A3010008A301000800F002F822
:1000F00000F03AF80AA090E8000C82448344AAF188
:100100000107DA4501D100F02FF8AFF2090EBAE885
:100110000F0013F0010F18BFFB1A43F0010318473B
:100120003829000058290000103A24BF78C878C147
:10013000FAD8520724BF30C830C144BF04680C60ED
:10014000704700000023002400250026103A28BF35
:1001500078C1FBD8520728BF30C148BF0B60704739
:100160001FB51FBD10B510BD00F068F81146FFF7B0
:10017000F7FF00F09DFE00F086F803B4FFF7F2FFF2
:1001800003BC00F089F8000009488047094800478F
:10019000FEE7FEE7FEE7FEE7FEE7FEE7FEE7FEE737
:1001A000FEE7FEE704480549054A064B7047000094
:1001B000490C0008ED0000088000002080060020A7
:1001C000800200208002002010B5203AC0F00B8091
:1001D000B1E81850203AA0E81850B1E81850A0E84B
:1001E0001850BFF4F5AF5FEA027C24BFB1E81850A5
:1001F000A0E8185044BF18C918C0BDE810405FEA15
:10020000827C24BF51F8043B40F8043B08BF704790
:10021000D20728BF31F8023B48BF11F8012B28BF95
:1002200020F8023B48BF00F8012B70477047704729
:1002300070470000004870471C0000207546FFF71B
:10024000F9FFAE4605006946534620F00700854693
:1002500018B020B5FFF7A6FFBDE820404FF000061C
:100260004FF000074FF000084FF0000B21F007019E
:10027000AC46ACE8C009ACE8C009ACE8C009ACE8E1
:10028000C0098D46704710B50446AFF30080204684
:10029000BDE81040FFF771BF01491820ABBEFEE773
:1002A00026000200704700BFFEE7704700B5034616
:1002B00003E04FF47A7000F005F8181EA3F1010373
:1002C000F7D100BD00EBC001C9004FF0E022516141
:1002D000002191610521116100BF4FF0E021096902
:1002E00001F480310029F8D004214FF0E02211619F
:1002F00070472DE9F041024600250026002000232A
:100300000024002791F803C00CF00F0591F803C0FA
:100310000CF0100CBCF1000F03D091F802C04CEAB5
:10032000050591F800C0BCF1000F31D01468002021
:100330002BE04FF0010C0CFA00F3B1F800C00CEA0E
:1003400003069E4220D183004FF00F0C0CFA03F7F6
:10035000BC4305FA03FC4CEA040491F803C0BCF169
:10036000280F06D14FF0010C0CFA00FCC2F814C0A3
:100370000AE091F803C0BCF1480F05D14FF0010C21
:100380000CFA00FCC2F810C0401C0828D1D314603D
:10039000B1F800C0BCF1FF0F34DD546800202EE03E
:1003A00000F1080C4FF0010808FA0CF3B1F800C096
:1003B0000CEA03069E4221D183004FF00F0C0CFA89
:1003C00003F7BC4305FA03FC4CEA040491F803C0AC
:1003D000BCF1280F05D100F1080C08FA0CF8C2F89E
:1003E000148091F803C0BCF1480F07D100F1080C4C
:1003F0004FF0010808FA0CF8C2F81080401C0828D9
:10040000CED35460BDE8F0810246002093680B40D3
:100410000BB1012000E0002070470AB1016100E04B
:10042000416170472DE9F84F0746884693469A4642
:10043000DDF828900097B3E099F8000080283DDAB5
:1004400099F800600D2E05D1009F08F110001FFAE9
:1004500080F830E0202E03DDA6F1200086B200E017
:100460000026002422E000251CE004EB0610504981
:10047000085C80212941084040B108EB040291B298
:100480007A1990B25A4600F097F809E0D34507D0A0
:1004900008EB040291B27A1990B2524600F08CF83F
:1004A000681CC5B2082DE0DB601CC4B2102CDADB7E
:1004B00007F1080087B209F1010971E0002668E040
:1004C00006EB06103B4911F8100099F8001088421D
:1004D0005DD106EB0610374901EB4000407899F8F2
:1004E0000110884253D100244FE0002520E006EBA4
:1004F0000610304901EB4000801C10F814108020D9
:100500002841014041B108EB040291B27A1990B23E
:100510005A4600F051F809E0D34507D008EB040231
:1005200091B27A1990B2524600F046F8681CC5B2F2
:10053000082DDCDB002524E006EB06101D4901EB4D
:100540004000801C012101EB4401405C80212941D5
:10055000084048B108EB040291B27A19083290B20F
:100560005A4600F029F80AE0D34508D008EB040207
:1005700091B27A19083290B2524600F01DF8681C08
:10058000C5B2082DD8DB601CC4B2102CADDB701CCA
:1005900086B2342E94DB09F1020907F1100087B20C
:1005A00099F8000000287FF447AFBDE8F88F0000FD
:1005B0003C100008AE1D000870B504460D461646F6
:1005C000681C83B2601C82B22946204600F0C2F942
:1005D000304600F06BF870BD00BFFEE708B50121A2
:1005E000082000F08BFA40F20340ADF80000032031
:1005F0008DF8020010208DF8030069460A48FFF7C5
:1006000078FE0121042000F079FAB020ADF8000056
:1006100003208DF8020010208DF80300694603487E
:10062000FFF767FE08BD0000000C01400008014014
:100630002DE9F04389B00746884615461E46DDE998
:1006400010940CB1082C00DD0824142212A101A87A
:10065000FFF7BAFD00200FE0231A5B1E9B06190E60
:1006600025FA01F303F00F0201AB9B5C0DF1180CAE
:100670000CF80030411CC8B2A042EDDB002006A9F6
:10068000085506A84B463246414600903846FFF7CB
:10069000C9FE09B0BDE8F083303132333435363726
:1006A00038394142434445460000000010B5044635
:1006B000102008490860022007490860201200F055
:1006C0002DFAE0B200F02AFA10200249091F086052
:1006D00010BD000014080140100C014070B5064622
:1006E0007F231A460021084600F034F92C2000F040
:1006F00071F9002408E0002503E03046FFF7D6FF3B
:100700006D1C802DF9D3641C802CF4D370BD10B502
:10071000FFF764FF00F00CF9112000F05BF978207E
:10072000FFF7C4FDB12000F055F9012000F03EF9BB
:100730002C2000F03BF92D2000F038F9B22000F019
:1007400049F9012000F032F92C2000F02FF92D207A
:1007500000F02CF9B32000F03DF9012000F026F95B
:100760002C2000F023F92D2000F020F9012000F0CA
:100770001DF92C2000F01AF92D2000F017F9B420F3
:1007800000F028F9072000F011F9C02000F022F94C
:10079000A22000F00BF9022000F008F9842000F0FC
:1007A00005F9C12000F016F9C52000F0FFF8C220BD
:1007B00000F010F90A2000F0F9F8002000F0F6F837
:1007C000C32000F007F98A2000F0F0F82A2000F09A
:1007D000EDF8C42000F0FEF88A2000F0E7F8EE20E3
:1007E00000F0E4F8C52000F0F5F80E2000F0DEF887
:1007F000362000F0EFF8082000F0D8F8E02000F0F4
:10080000E9F80F2000F0D2F81A2000F0CFF80F20FE
:1008100000F0CCF8182000F0C9F82F2000F0C6F83E
:10082000282000F0C3F8202000F0C0F8222000F0BB
:10083000BDF81F2000F0BAF81B2000F0B7F8232005
:1008400000F0B4F8372000F0B1F8002000F0AEF866
:10085000072000F0ABF8022000F0A8F8102000F00C
:10086000A5F8E12000F0B6F80F2000F09FF81B205B
:1008700000F09CF80F2000F099F8172000F096F88F
:10088000332000F093F82C2000F090F8292000F09D
:100890008DF82E2000F08AF8302000F087F8302004
:1008A00000F084F8392000F081F83F2000F07EF855
:1008B000002000F07BF8072000F078F8032000F01B
:1008C00075F8102000F072F82A2000F083F800205C
:1008D00000F06CF8002000F069F8002000F066F8E5
:1008E0007F2000F063F82B2000F074F8002000F067
:1008F0005DF8002000F05AF8002000F057F89F2023
:1009000000F054F8F02000F065F8012000F04EF8F7
:10091000F62000F05FF8002000F048F83A2000F0E0
:1009200059F8052000F042F8292000F053F810BDD6
:1009300010B50120064908606420FFF7B7FC0120CC
:100940000349091F08603220FFF7B0FC10BD00000A
:10095000140C0140F0B504460D4616461F462A20E9
:1009600000F038F8002000F021F8A11CC8B200F017
:100970001DF8002000F01AF8B11CC8B200F016F8FB
:100980002B2000F027F8002000F010F8E91CC8B276
:1009900000F00CF8002000F009F8F91CC8B200F0D3
:1009A00005F82C2000F016F8F0BD000010B5044644
:1009B000102006490860022005490860204600F022
:1009C000ADF810200149091F086010BD140801404E
:1009D000100C014010B504461020064908600220A2
:1009E00005490860204600F099F810200149091FC8
:1009F000086010BD14080140140C014000BFFEE760
:100A000008B50121082000F079F810208DF80300C6
:100A10004FF43070ADF8000003208DF802006946F5
:100A20000B48FFF766FC48208DF803004FF48070F8
:100A3000ADF8000003208DF8020069460448FFF776
:100A400058FC012000F04CF8002000F03FF808BDF1
:100A5000000C014010B54FF480710248FFF7D4FC40
:100A600010BD0000000C014010B5002000F038F867
:100A700010BD10B5012000F033F810BD70B505466B
:100A80000026002414E08021214101EA050000F045
:100A900013F8012000F01AF8FFF7DCFF012802D15B
:100AA000802020410643002000F010F8601CC4B2F2
:100AB000082CE8DB304670BD10B5044622464021C4
:100AC0000148FFF7AAFC10BD000C014010B5044618
:100AD000224680210148FFF7A0FC10BD000C014018
:100AE00010B5044622464FF400710248FFF795FC0A
:100AF00010BD0000000C01407047704729B1064A44
:100B000092690243044B9A6104E0034A926982436A
:100B1000014B9A617047000000100240002108213B
:100B200014E000F080021AB180220A4B1A6003E040
:100B30008022084B1B1D1A602022064B1B1D1A60C9
:100B40001B1F1A604206100E4A1ED1B20029E8DCB3
:100B50007047000010080140704710B500F002F81F
:100B600010BD00000CB500200190009033480068D3
:100B700040F480303149086000BF3048006800F41C
:100B8000003000900198401C0190009818B901981D
:100B9000B0F5A06FF1D12948006800F4003010B121
:100BA0000120009001E0002000900098012843D12E
:100BB0002348006840F0100021490860084600689A
:100BC00020F0030008600846006840F0020008605A
:100BD0001A48406819494860084640684860084615
:100BE000406840F4806048600846406820F47C100B
:100BF00048600846406840F4E810486008460068CD
:100C000040F08070086000BF0C48006800F0007081
:100C10000028F9D00948406820F0030007494860DF
:100C20000846406840F00200486000BF0348406842
:100C300000F00C000828F9D10CBD000000100240A3
:100C4000002002407047000010B51348006840F0D3
:100C500001001149086008464068104908400E49E3
:100C60004860084600680E4908400B49086008467D
:100C7000006820F4802008600846406820F4FE00E8
:100C800048604FF41F008860FFF767FF4FF0006077
:100C90000449086010BD0000001002400000FFF889
:100CA000FFFFF6FE08ED00E010B540F225510B48BD
:100CB00000F027F8012810D1084800F04CF8C4B221
:100CC0000748006818B1204605490968884740F27E
:100CD0002551024800F006F800BF10BD0044004056
:100CE0000000002010B50022002340F66A14A14243
:100CF00000D100BF0A1201249440A3B2DC43048057
:100D000010BD70B50246002400230025002040F6E7
:100D10006A16B14200D100BFC1F3421501F01F03B2
:100D2000012606FA03F3012D02D19689334006E02D
:100D3000022D02D1168A334001E0968A33400C120C
:100D4000012606FA04F41688344013B10CB10120D0
:100D500000E0002070BD01468888C0F3080070479D
:100D600000BFFEE710B5FFF74BFE10BD2DE9F041C7
:100D700004460E46174600F091F8FFF775FE022074
:100D8000FFF77CFEC4F30740FFF778FEC4F30720AB
:100D9000FFF774FEE0B2FFF771FE002504E0705D1E
:100DA000FFF76CFE681C85B2BD42F8DBFFF761FE01
:100DB00000F05CF8BDE8F0812DE9F04104460E46F4
:100DC0001746FFF751FE0320FFF758FEC4F3074014
:100DD000FFF754FEC4F30720FFF750FEE0B2FFF721
:100DE0004DFE002504E0FF20FFF748FE70556D1C06
:100DF000BD42F8D3FFF73DFEBDE8F08170B5054672
:100E00000C46FFF731FE9F20FFF738FEFF20FFF76B
:100E100035FE2870FF20FFF731FE208020884FF636
:100E2000FF7101EA00202080FF20FFF727FE2188C4
:100E300008432080FFF71DFE70BD10B5044600F08A
:100E40002DF8FFF711FE2020FFF718FEC4F307402E
:100E5000FFF714FEC4F30720FFF710FEE0B2FFF720
:100E60000DFEFFF706FE00F001F810BD10B5FFF70C
:100E7000FBFD0520FFF702FE074C02E0641E04B9EB
:100E800006E0FF20FFF7FAFD00F001000028F5D191
:100E900000BFFFF7EEFD10BDA086010010B5FFF703
:100EA000E3FD0620FFF7EAFDFFF7E3FD10BD0000BC
:100EB0001CB5FFF72CFCFFF755FF4FF48060554938
:100EC00008600020FFF70AFC53A000234FF6FF72D2
:100ED0000A2100900846FFF7A5FA52A000234FF61A
:100EE000FF721E2100900A20FFF79CFA4EA00023FB
:100EF0004FF6FF72322100900A20FFF793FA4B4918
:100F00004B48FFF77BFF022000214FF6FF73CDE92E
:100F10000010474802780A212820FFF789FB0420A7
:100F200000214FF6FF73CDE90010404802880A21E6
:100F30005A20FFF77DFB0020FFF77FFF04223D4989
:100F40000020FFF713FF04223B490020FFF734FF86
:100F500002200021CDE90010364802784FF6FF73D9
:100F60001E210846FFF764FB02200021CDE9001096
:100F7000304842784FF6FF731E213220FFF758FBAE
:100F800002200021CDE900102A4882784FF6FF7335
:100F90001E214620FFF74CFB02200021CDE9001066
:100FA0002448C2784FF6FF731E215A20FFF740FBFA
:100FB00002200021CDE900101F4802784FF6FF7390
:100FC00032211E20FFF734FB02200021CDE9001062
:100FD000194842784FF6FF7332210846FFF728FB85
:100FE00002200021CDE90010134882784FF6FF73EC
:100FF00032214620FFF71CFB02200021CDE9001022
:101000000D48C2784FF6FF7332215A20FFF710FBCC
:1010100000BFFEE7100C01404D49443A20204449EE
:10102000443A0000573A0000523A000006000020FF
:1010300004000020080000200C0000200000000038
:101040000000000000000000000000000010101070
:1010500010101010101000001010000000006C6C38
:1010600024240000000001000000000000242424CB
:1010700024FE48484848FC909090900000103C5452
:101080009290503814121292547810000000225C92
:1010900094A8481010242A525488000000003048B8
:1010A0004850206E54948C888A74000000003030C0
:1010B00010100000000000000000000000040810F4
:1010C0001020202020202010100804000080402044
:1010D0002010101010101020204080000000000090
:1010E00010543810385410000000000000000010A8
:1010F000101010FE10101010000000000000000082
:10110000000000000000000010102000000000009F
:10111000000000FE000000000000000000000000D1
:101120000000000000000000101000000000040497
:101130000808101020204040808000000000384443
:101140008282828282828282443800000000107093
:101150001010101010101010107C00000000384407
:10116000828204081020408284FC00000000384481
:101170008202043804020282443800000000040C99
:10118000141424244444FE04040E00000000FC80D7
:101190008080B8C4820202828478000000003C4251
:1011A0008280B8C4828282824438000000007E427D
:1011B00082040408080810101010000000003844D1
:1011C00082824438448282824438000000003844DD
:1011D00082828282463A0282443800000000000087
:1011E00010100000000010100000000000000000BF
:1011F000101000000000001010200000000000008F
:101200000618608060180600000000000000000062
:101210000000FE0000FE00000000000000000000D2
:10122000C0300C020C30C0000000000000384482C6
:101230008202040810101000101000000000384452
:10124000829AAAAAAAAAAA9680423C00000010107C
:101250001028282844447C4444EE00000000FC424E
:101260004242427C4242424242FC000000003C4476
:101270008280808080808282443800000000F844B0
:10128000424242424242424244F800000000FC44D2
:101290004240447C4440404244FC00000000FC4486
:1012A0004240447C4440404040F000000000344C48
:1012B000828080808E8484844C3400000000EE4460
:1012C0004444447C4444444444EE000000007C1008
:1012D0001010101010101010107C000000003E08BC
:1012E0000808080808080888887000000000EE4414
:1012F000484850605048484444EE00000000E04038
:10130000404040404040404244FC00000000C64491
:101310006C6C6C545454444444EE00000000CE44C1
:1013200064646454544C4C4C44E400000000384461
:101330008282828282828282443800000000F844E5
:10134000424242447840404040E0000000003844BF
:1013500082828282828282BA443C02000000F0488B
:10136000444444487048444444E6000000003C447F
:10137000828040300C0202824478000000007C54DD
:101380009210101010101010103800000000EE44E1
:101390004444444444444444443800000000EE447F
:1013A0004444442828282810101000000000EE446F
:1013B0005454545454542828282800000000EE4463
:1013C000442828101028284444EE00000000EE4471
:1013D00044282828101010101038000000007E4407
:1013E000840808102020408284FC0000001C10109B
:1013F000101010101010101010101C000000EE44FF
:101400005454FE545454282828280000007010100A
:1014100010101010101010101010700000304884C0
:1014200000000000000000000000000000000000BC
:1014300000000000000000000000FE00004020004E
:10144000000000000000000000000000000000009C
:1014500000007884047C84848C7600000000C04006
:10146000404058644242424264580000000000007C
:1014700000003844808080804438000000000C0464
:101480000404344C848484844C3600000000000042
:101490000000788484FC8080847800000000182498
:1014A0002020F820202020202070000000000000D4
:1014B00000003A444478807C82827C000000C04076
:1014C000404058644444444444EE0000000010107E
:1014D0000000301010101010103800000000101024
:1014E0000000301010101010109060000000C0407C
:1014F00040405C485060504844EE0000000030100E
:101500001010101110101010103900000000000011
:101510000000ACD29292929292D60000000000009D
:10152000000058E44444444444EE0000000000003D
:1015300000003844828282824438000000000000AB
:101540000000D864424242645840E00000000000BD
:101550000000364C8484844C34040E0000000000EB
:1015600000006C30202020202070000000000000CF
:10157000000078888460188444780000000000200F
:101580002020F82020202020241800000000000047
:101590000000C64242424242463A000000000000BB
:1015A0000000EE444428282810100000000000002D
:1015B0000000EE4444545428282800000000000095
:1015C0000000EE442810102844EE00000000000047
:1015D0000000EE444428281010A0C00000000000C5
:1015E00000007E448810204284FC0000000C101093
:1015F000101010601010101010100C0000101010BF
:1016000010101010101010101010100000C020202A
:1016100020202018202020202020C00000000000D2
:10162000000000728C0000000000000000000000BC
:1016300000001FE000003FF000003FF000001FE04E
:10164000000180060003C00F0003C00F0003C00F9D
:101650000003C00F0003C00F0003C00F0003C00F42
:101660000003C00F000300030000000000000000A2
:1016700000000000000300030003C00F0003C00FC0
:101680000003C00F0003C00F0003C00F0003C00F12
:101690000003C00F0003C00F0001800600001FE020
:1016A00000003FF000003FF000001FE000000000DD
:1016B00000000000000000800000018000000380A6
:1016C00000000780000007800000078000000780FE
:1016D00000000780000007800000078000000780EE
:1016E00000000780000001800000000000000000F2
:1016F000000000000000018000000780000007805B
:1017000000000780000007800000078000000780BD
:1017100000000780000007800000078000000380B1
:1017200000000180000000800000000000000000B8
:1017300000001FE000003FF00000FFF00001FFE0AC
:10174000000000060000000F0000000F0000000F66
:101750000000000F0000000F0000000F0000000F4D
:101760000000000F00001FE300007FF800007FF87A
:1017700000001FE0000300000003C0000003C000E1
:101780000003C0000003C0000003C0000003C0004D
:101790000003C0000003C0000001800000001FF033
:1017A00000003FF800003FFC00001FFE00000000AA
:1017B0000003FF800001FFC00000FFC000007F8029
:1017C000000000180000003C0000003C0000003C4D
:1017D0000000003C0000003C0000003C0000003C19
:1017E0000000003C00007F8C0001FFE00001FFF0E2
:1017F00000007F800000000C0000003C0000003C66
:101800000000003C0000003C0000003C0000003CE8
:101810000000003C0000003C0000001800007F8039
:101820000000FFC00001FFC00003FF8000000000B7
:101830000000000000020001000300030003800715
:101840000003C00F0003C00F0003C00F0003C00F50
:101850000003C00F0003C00F0003C00F0003C00F40
:101860000003C00F00031FE300007FF800007FFCAF
:1018700000001FE0000000030000000F0000000F48
:101880000000000F0000000F0000000F0000000F1C
:101890000000000F0000000F0000000F0000000714
:1018A0000000000300000001000000000000000034
:1018B00000001FFC00003FF800003FF000001FE0A8
:1018C000000180000003C0000003C0000003C0004E
:1018D0000003C0000003C0000003C0000003C000FC
:1018E0000003C00000031FE000007FF800007FF845
:1018F00000001FE0000000030000000F0000000FC8
:101900000000000F0000000F0000000F0000000F9B
:101910000000000F0000000F0000000600003FE084
:1019200000007FF00000FFF00001FFE00000000079
:1019300000001FFC00003FF800003FF000001FE027
:10194000000180000003C0000003C0000003C000CD
:101950000003C0000003C0000003C0000003C0007B
:101960000003C00000031FE000007FF800007FFCC0
:1019700000001FE0000300030003C00F0003C00FBE
:101980000003C00F0003C00F0003C00F0003C00F0F
:101990000003C00F0003C00F0001800600001FE01D
:1019A00000003FF000003FF000001FE000000000DA
:1019B0000007FFE00003FFC00001FF880000FF18E0
:1019C0000000003800000078000000780000007877
:1019D0000000007800000078000000780000007827
:1019E0000000007800000018000000000000000067
:1019F00000000000000000180000007800000078DF
:101A000000000078000000780000007800000078F6
:101A10000000007800000078000000780000003826
:101A20000000001800000008000000000000000096
:101A300000001FE000003FF000003FF000001FE04A
:101A4000000180060003C00F0003C00F0003C00F99
:101A50000003C00F0003C00F0003C00F0003C00F3E
:101A60000003C00F00031FE300007FF800007FFCAD
:101A700000001FE0000300030003C00F0003C00FBD
:101A80000003C00F0003C00F0003C00F0003C00F0E
:101A90000003C00F0003C00F0001800600001FE01C
:101AA00000003FF000003FF000001FE000000000D9
:101AB00000001FE000003FF000003FF000001FE0CA
:101AC000000180060003C00F0003C00F0003C00F19
:101AD0000003C00F0003C00F0003C00F0003C00FBE
:101AE0000003C00F00031FE300007FF800007FFC2D
:101AF00000001FE0000000030000000F0000000FC6
:101B00000000000F0000000F0000000F0000000F99
:101B10000000000F0000000F0000000600001FE0A2
:101B200000003FF000007FF00000FFE00000000038
:101B300000000000000000000000000000000000A5
:101B40000000000000000000000000000000000095
:101B50000000000000000000000000000000000085
:101B60000000000000000000000000000000000075
:101B70000000000000000000000000000000000065
:101B80000000780000007800000078000000780075
:101B90000000780000007800000000000000000055
:101BA0000000000000000000000000000000000035
:101BB0000000000000000000000000000000000025
:101BC000000000000000000000000000000007000E
:101BD00000000F8000000F8000000F800000070051
:101BE00000000000000000000000000000000000F5
:101BF00000000000000000000000070000000F804F
:101C000000000F8000000F800000070000000000AF
:101C100000000000000000000000000000000000C4
:101C200000000000000000000000000000000000B4
:101C30000000000000000000000000000007C006D7
:101C4000000FE0060000000C0030181800301818D3
:101C5000003018300030183000301860003008C0F4
:101C60000007C0C0000FE080000000000000000F6F
:101C7000E0000607C000063018000C3018000C30D9
:101C8000180018301800303018003030180060008C
:101C90000000C00FE000C007C0000000000000000E
:101CA0000000000000000000000000000000000034
:101CB0000000000000000000000000000000000024
:101CC00000000000000700E0000887FC00088E0309
:101CD00000089801800718008000300000003000E4
:101CE0000000700000006000000060000000600064
:101CF0000000600000006000000070000000300084
:101D000000003000000038000000180100000C0343
:101D1000000007FC000001F00000000000000000CF
:101D200000000000000000000000000000000000B3
:101D300000000000000000000000000000000000A3
:101D40000000000000000000000000000000000093
:101D50000000000000000000000000000000000083
:101D6000000000000000000000003FF000007FF0D5
:101D700000007FE00000FFC0000000000000000045
:101D80000000000000000000000000000000000053
:101D90000000000000000000000000000000000043
:101DA0000000000000000000000000000000B5E797
:101DB0000200020002007FF0421042107FF0421049
:101DC00042107FF042000208020801F80000000003
:101DD000D7D37FF000200040008001000200FFF810
:101DE0000200020002000200020002000E000000D9
:101DF0000000C8AB01000100028004400820101060
:101E00002FE8C106010001001FF0010001000100E0
:101E10007FFC0000B6AF004000407C40004001FC69
:101E20000044FE4420442044208448844484FD042B
:101E3000450402280410BCBC10201020102013FE02
:101E4000FC201020102015FC18843088D048105039
:101E50001020105051882606CAF5010001200110FB
:101E600001107FFC03800540054009201110210866
:101E700041040102010001000100D2BA008040408B
:101E800027F8114001408278424816A81AD0235002
:101E9000222042204250028800000000BEA73FE0FE
:101EA00020203FE020203FE00000FDF88508850865
:101EB000FDF885088508FDF8850800000000B2E2FD
:101EC00000084F8828880AA88AA84AA80AA82AA829
:101ED0002AA8422845088488888810380000000015
:101EE000CAD44050204820400FF80040E04027402E
:101EF0002240224022202A2833A82E180008000061
:101F00000000B3CC00001BF0E210221023F0F80018
:101F1000200033F068806080A3F02080208027F8C4
:101F200000000000D0F2020001003FF820002FF076
:101F30002020224021803FF820882090408040804F
:101F4000838000000000D1D5200010F87E2044409E
:101F500028F87E8848A850A864A848A872A8845089
:101F60001888610800000000C9AB100010003FE0B5
:101F7000404080807FF04210421042107FF04000CD
:101F8000400840083FF800000000CCEE20802FF809
:101F9000208027F0F41027F0241027F0241027F0D9
:101FA0003410CFF80220041000000000B3E4040055
:101FB0000200FFF80800104020207FF00890088001
:101FC0000880088010882088C07800000000CEC4F7
:101FD000040002000200FFF8104010400880088052
:101FE00005000200050008803060C01800000000F5
:101FF000D7D604000200FFF8800880083FC00080A8
:1020000001000200FFF80200020002000E000000C2
:102010000000CFD43FE0202020203FE020202020DF
:102020003FE008804890289028A008800880FFF8AA
:1020300000000000CABE00003FE0000000000000F9
:10204000FFF802001240122022104208820802000B
:102050000E0000000000CDBC7FF84008440847C8CF
:102060004848548843084CC8733840884C08430893
:1020700040887FF800000000C6AC008020802080EF
:1020800020803FF02000200020003FC02040204062
:1020900020404040804000000000B4A5204038406F
:1020A000484091F07D50555055507D5055F054406A
:1020B0007C40545057F88C0800000000C3FE2220DA
:1020C000222027F8FA2027F0241027F03410E7F018
:1020D00020802FF821402220EC1800000000CAE4E4
:1020E00040804140F22044108BE8A000F78824A8EB
:1020F00027A834A8E7A824A8248825B80000000051
:10210000C8EB0800040004000200020005000500FE
:1021100008800880104010402020401080080000F7
:102120000000C8AB0200020005000880104020201B
:10213000DFD8020002001FC0020002000200FFF808
:1021400000000000B3CC00001BF0E210221023F0CE
:10215000F800200033F068806080A3F020802080A9
:1021600027F800000000BCBC208020802080F7F011
:102170002080208027E03220E22021402080214062
:102180002220EC1800000000CAF5020002400220E4
:102190000200FFF807000A800A8012402220421045
:1021A00082080200020000000000D6A70200020020
:1021B000FFF8020002007FE01020104008800500B8
:1021C0000200050018C0E03800000000B3D62080EF
:1021D000208023F0F880208027F828203020E7F89E
:1021E0002020222021202020E0E000000000D7A8AD
:1021F000020002007FF004000400FFF80800100055
:102200003FE0002000401C80030000800000000030
:10221000D7A201004080200017F00080808040801D
:10222000008017F010802080208040804FF8000050
:102230000000C5FA204024402440F4482450276080
:1022400024403440E4402440244025482648E438D3
:1022500000000000B7A202002220221044007FF8F4
:10226000040008000FE0142024404280810006C0D2
:10227000383800000000B3C900A0009000807FF84B
:10228000408040907C90449044A044A0444858A88A
:102290004118820800000000B9A601000100F90001
:1022A00023F0211021102110211021103910C2100B
:1022B00002100410086000000000D2C600000020D8
:1022C00000780CE47904516810307E6019981A3C4B
:1022D0002FE448E40838003000600000D1A100007D
:1022E0000120012003FC62203420042003FC240090
:1022F00021B021202220323E18000FE00000D4F14E
:102300000000000010FC1304110C3DF8703E10D0CA
:1023100015907CF0503E18101BFE0230002000008B
:10232000CFEE0000000003FE00607C4012FC1104B0
:102330001106113611241F44794400C0009C018607
:102340000000C4BF000000000FE03C18200820047B
:102350003E04600460047E046004200C20081FF02A
:1023600001800000B6CC0000080011FC103E3EF8D1
:102370002D8C2904490409043E8C50FC10881EC889
:1023800011FC100E0000B0B400000040006012FE0E
:1023900013023A427F4410C41BFE3C9871901130E6
:1023A00011A00078004C0000C8B70000004000F801
:1023B00078C41F8C313821EC2126413A7DE2272256
:1023C00025FA3D26012401040000B6A80000010002
:1023D00001705FFC700420042FF801001100113817
:1023E00021C431003F0063E040380000B3A4000086
:1023F00000000818086008C00B001E00181C7FF0C1
:102400001000118010E01838098E0F000000B0B4E1
:1024100000000040006012FE13023A427F4410C4E4
:102420001BFE3C987190113011A00078004C000008
:10243000B7B50000000007F80600240014F8078C68
:1024400004042408261825F0647C64C220801FC080
:102450000000BBD8000000001FF030182008278CB7
:102460002C44284428442CC427842004300C1FF812
:1024700003800000CEC2020002002240224022401F
:1024800022402240FE7E2240224022402240224022
:10249000020000000000B6C80800080008007FF82D
:1024A000410841104110412041204120414041401C
:1024B0007F8000000000000000000000000000001D
:1024C000000000000000000000000000000000000C
:1024D00000000000000000000000B4BF0000000089
:1024E0000000020100063FC00C3FE018030010028C
:1024F000003336603726203E66301C643018642076
:1025000031FEE03F1FC01C0C00000C000704003E21
:1025100007F00001C0000000000000000000000003
:1025200000000000C9AB00000000000001FE000335
:10253000E3000703000C03001C3F003BFFC03F30DB
:10254000600C30200C30200C10200C10600FFFC0ED
:10255000083F000800000800600E3FE007FC000094
:102560000000000000000000000000000000CCEEB1
:1025700000000000000000030000FFE00C07F00C6A
:1025800006000CFF803FF0E01FC0600CFE300CCC5A
:102590003004F83004FF2004C0201FFE603EC060FD
:1025A00001FFF001FFF0006060004000000000004B
:1025B0000000000000000000B3E400000000000084
:1025C00000200000300007FFF03FFFE0030000069E
:1025D00001800C01800801C01807E00FFE7007E0C1
:1025E000000206000604000404000404000C067047
:1025F0000C07E000000000000000000000000000E8
:102600000000B2E200000000000000003039FC30A1
:102610001FCC300706B00F06F01907B03137B031C4
:1026200036F01F27F00167F001E5F001E1F000410D
:10263000F00CF8B03CD830008C3000803000000046
:10264000000000000000000000000000CAD40000EC
:10265000000000000803600C03700C0330003FE032
:10266000003F800801003C0180047F80047D800CD5
:1026700000800C10C00C10C00C18400C1C600F7EA9
:102680006006703000003000000000000000000014
:10269000000000000000CEC400000000C00000E008
:1026A0000000700001FFE01FFFC0180100000300E0
:1026B000000600000E00001C000E1800073000018C
:1026C000E00000F00000FC00018F000303C00201E5
:1026D000E00000000000000000000000000000001A
:1026E000D7D6000000000000002000003F0031FFAE
:1026F000E03FC02038003030FE2033C660100200BA
:10270000000C00001800001800000C0007FFE03F5C
:10271000FFE0000400000C00000C000000000000BE
:1027200000000000000000000000CFD40000000006
:10273000000007FF000F03C00C00401FF8601800E6
:10274000600800400E01C007FF0000000001840087
:102750000184001987800F8CE0078C2000CC0003D7
:10276000FFE01FFFC00000000000000000000000AC
:1027700000000000CABE0000000000000E00001FA4
:10278000FFC0007FE000000000000000000000002B
:1027900000003FC03FFFE00030000030000030008C
:1027A0000613000C13C00C18F018180018180000BD
:1027B0000000000000000000000000000000CDBC90
:1027C00000000000000007FF000F03801CC0C019BC
:1027D000FC6011C66033062033E63036FF30301F10
:1027E000F030703030FC30339F3036002010E06025
:1027F000187C400E01C003FF0000380000000000FC
:102800000000000000000000C6AC00000000000056
:10281000081800180800180800180800180C201FD5
:10282000FFF01FF80018000010000010F8001FFE55
:10283000001E03001003001003001003001003002B
:10284000180200000000000000000000000000006E
:102850000000CFD400000000000007FF000F03C0FD
:102860000C00401FF8601800600800400E01C0070F
:10287000FF000000000184000184001987800F8C94
:10288000E0078C2000CC0003FFE01FFFC000000029
:10289000000000000000000000000000CABE0000B0
:1028A000000000000E00001FFFC0007FE0000000DD
:1028B000000000000000000000003FC03FFFE000FB
:1028C00030000030000030000613000C13C00C185C
:1028D000F0181800181800000000000000000000A8
:1028E000000000000000B4A5000000000000060188
:1028F000800FC1801E6180304FC020CFE0078D3037
:102900003FC9303379303379303FFB3037FF2032E5
:1029100067E03FE3803FE3C03263603267F0304FEF
:10292000B0000000000000000000000000000000F7
:10293000C3FE0000000000000030C000FFF00C7972
:10294000C00C1F800C7FE03FE0600CC0300CFC30FE
:1029500004C03007C0301E60603C3FC0041C00044F
:102960007FE000FFE00030C0006060000000000079
:1029700000000000000000000000CAE400000000A9
:1029800000000C03800C0FC0081C703F70001F9FDC
:10299000C0101FC0100000367C3017E6301FE3B0B7
:1029A000067FB00277F007E3F03F7FF01336F003C5
:1029B0002630032630000000000000000000000068
:1029C00000000000C8EB000000000000060000034B
:1029D000800001C00000E00000700000780000CC22
:1029E0000000C6000183000301800700C00600E06C
:1029F0000C007018003018000030000000000000CB
:102A000000000000000000000000000000000000C6
:102A100000000000000000000000000000000000B6
:102A200000000000000000000000000000000000A6
:102A30000000000000000000000000000000000096
:102A40000000000000000000000000000000000086
:102A50000000000000000000782A000800000020AC
:102A60001C00000028010008942A00081C00002017
:102A7000640600004401000800000000000000009F
:102A8000A1B2C3D40000000000000000000000005C
:042A90000000000042
:04000005080000ED02
:00000001FF
